:020000041000EA
:1000000000B5324B212058609868022188439860DF
:10001000D860186158612E4B002199600221596106
:100020000121F02299502B49196001219960352056
:1000300000F044F80222904214D00621196600F024
:1000400034F8196E01211966002018661A6600F04E
:100050002CF8196E196E196E052000F02FF8012189
:100060000842F9D1002199601B49196000215960AB
:100070001A491B48016001219960EB211966A021F2
:10008000196600F012F800219960164914480160C1
:100090000121996001BC002800D000471248134993
:1000A000086003C880F30888084703B5996A0420EC
:1000B0000142FBD001200142F8D103BD02B5186610
:1000C0001866FFF7F2FF186E186E02BD00000240BE
:1000D000000000180000070000035F00212200005C
:1000E000F4000018222000A00001001008ED00E03C
:1000F00000000000000000000000000074B24E7A12
:1001000000200420F7010010C3010010C5010010F9
:10011000C1010010C1010010C1010010C101001097
:10012000C1010010C1010010C1010010C701001081
:10013000C1010010C1010010C9010010CB01001065
:10014000CD010010CD010010CD010010CD01001037
:10015000CD010010CD010010CD010010CD01001027
:10016000CD010010CD010010CD010010CD01001017
:10017000CD010010CD010010CD010010CD01001007
:10018000CD010010CD010010CD010010CD010010F7
:10019000CD010010CD010010CD010010CD010010E7
:1001A000CD010010CD010010CD010010CD010010D7
:1001B000CD010010CD010010CD010010CD010010C7
:1001C00000BE00BE00BE00BE00BE00BEEFF3058054
:1001D000103800BEF2EB887158EB041080EB04106D
:1001E0003802001090A31AE71E481F49086006C88D
:1001F00081F3088810471D480068002801D019487D
:10020000F3E70DA40ECC002902D000F012F8F9E7B4
:100210001749184A002000E001C19142FCD116495B
:100220008847164988471649884700BEFDE701C937
:1002300001C29A42FBD3704780EB0410E00000201B
:10024000E80A002088F504100000042000000420C3
:1002500088F50410001004200010042000000000A5
:10026000704700000000000008ED00E0000000D032
:10027000E80A002040CB0020293C0110D5020010E4
:10028000213C0110F8B5C04606480749091A8B10F1
:10029000C90FC91810B5491003D0044B002B00D06A
:1002A000984710BDE80A0020E80A0020000000007E
:1002B000054B10B5002B03D00449054800E000BFF2
:1002C000FFF7E2FF10BDC04600000000C8B90020E3
:1002D000244F011010B513F0D9FD0CF085FB0CF084
:1002E00037FB1B4800F05EFA802000F061FA1948E5
:1002F00000F064FA00F0A4F8041E23D01649174851
:1003000000F04CF8002813D1200000F047F9002835
:1003100014D0134C2378002B06D1FA20400001F0B2
:100320001BFC2378002BF8D00CF098FB002010BDAC
:100330000C4813F0FDFD08204042F8E70A4813F08E
:10034000F7FDF8E7094813F0F3FD10204042EEE70F
:10035000901F000019080010484F0110544F011061
:1003600038CB0020644F0110844F0110284F01103A
:10037000002070470020704710B5040080680028F6
:1003800001D012F051F8E068002801D012F04CF8CA
:10039000200012F049F8002010BDC046F8B5CE4646
:1003A0004746050080B50E001C481D4913F048FE65
:1003B0001C4B1D4F99461D4B984608E0C31C28D086
:1003C000023022D11A4813F0B3FD002C14D03100B2
:1003D0002800184A0CF0CAFA00210400380010F076
:1003E000D3FC00280DD0E9DD01280ED129001248E8
:1003F00013F026FE002CEAD10020C0BCB946B0465E
:10040000F8BD484613F094FDDFE7404613F090FD39
:10041000DBE70A4813F08CFDD7E7C046A04F011078
:10042000544F0110C84F0110A0110020845001103A
:10043000F84F0110060040005C50011028500110D8
:10044000254B70B51D68002D17D01021012011F02B
:10045000D7FF041E30D0280011F0C0FFA060002894
:1004600022D0280011F0BAFFE06000282CD01B4BEE
:100470001B68002B06D0200070BD194813F058FDF2
:100480000024F8E7174813F053FDA068002801D0B6
:1004900011F0CAFFE068002801D011F0C5FF20006C
:1004A00011F0C2FF0024E6E70F4813F041FD2000E1
:1004B000FFF762FF0400DEE70C4813F039FD00206F
:1004C000FFF75AFF0400D6E7094813F031FD20007A
:1004D000FFF752FF0400CEE7B80D0020BC0D00204E
:1004E000A450011014510110D4500110B850011043
:1004F000F450011070B50400244813F019FD606831
:10050000002500281AD0002104F0BAF900220021A9
:10051000606804F0EBF90021606804F0C3F9002181
:10052000606804F0B1F90021606804F0C9F96068FE
:1005300004F0F4FD051E1FD100236360206800282D
:1005400005D0002104F09CF9206804F0E7FDA068C4
:10055000002801D011F068FFE068002801D011F0F8
:1005600063FF200011F060FF0122094B09481A7057
:1005700013F0DEFC280070BD29000D25064813F09D
:100580005FFD606804F002FB6D42D5E73051011059
:1005900038CB0020685101104851011070B505009A
:1005A00082B0264813F0C4FC2E2004F0EFFB041E9A
:1005B0003CD0234E0021328803F052FD002824D184
:1005C0000121200003F0C6FD2860002826D0290064
:1005D00004F056F91B49286804F080F91A4A1B4BAD
:1005E0001B4C9B582000019313F0A2FC01A80BF0B8
:1005F000EDFF184B01003288180013F021FD200098
:1006000013F096FC012002B070BD3188124813F03F
:1006100017FD2800FFF76EFF0020F4E70F4813F0E6
:1006200087FC2800FFF766FF0020ECE70C4813F07A
:100630007FFC2800FFF75EFF0020E4E778510110FF
:1006400018CB002065060010E8080000A01100206B
:10065000D851011010520110A8510110C4510110BD
:100660009051011070B5060016480C00150013F0EB
:100670005FFC002C21D0002D17D1310020007460C8
:1006800004F0FEF80A2220000F4904F02FF92000A0
:100690000E4904F0F9F820000D4904F003F9200098
:1006A0000C4904F00DF9002070BD0B4813F040FC1C
:1006B0003000FFF71FFF2800F6E7084813F038FC6A
:1006C000F1E7C0462C52011071030010FD06001026
:1006D00075030010E10600107C52011068520110F1
:1006E0000B0010B504000D3302D0034813F0A8FC32
:1006F0002000FFF7FFFE10BD98520110F8B504006E
:100700000E001500002B33D1002A3ED01789002F90
:1007100023D1280003F0FCF8E1681D4813F090FC99
:100720001C49E06814F0D4F9002829D01A4F1B4B5B
:1007300039681B68200098473F6800213A0005008F
:10074000E06811F07DFE3A000021A06811F078FE0B
:10075000300004F0E3FC2800F8BDC16800233A0033
:10076000280003F003FA3900300003F06BFDD0E7F6
:100770000B4813F0DDFB2000FFF7BCFE0500EAE7A5
:100780002000FFF7B7FE0500E5E702256D42E2E72E
:10079000C8520110D8520110B80D0020BC0D002025
:1007A000B0520110014B18807047C04618CB002092
:1007B000014B18607047C046B80D0020014B18600F
:1007C0007047C046BC0D002070B5040008000D0045
:1007D00014F0C2F929000200A06811F037FEA168E8
:1007E0000A4813F02DFC0A4BA1681A88606801239F
:1007F00006F010FD002800D170BD064B0100180066
:1008000013F01EFC2000FFF775FEF5E7E052011023
:10081000B80D0020F052011070B50500080011F06D
:10082000DDFD0400EA68064913F0A0F92100280064
:10083000FFF7CAFF0500200011F0F6FD280070BD8B
:100840000853011010B507F093FF10BDF8B5012350
:100850000B72040007F0C0FF0500431C0BD1104BC6
:10086000186859680F4B22689860D96019002000F9
:1008700052699047F8BD01F031F9FA2206000F00E5
:10088000002328000021920011F05AFD80238019D6
:1008900079411B069942E5D3012003494042E1E733
:1008A0004870011088040020FFFFFF7F70B5094DDC
:1008B00004002B78002B08D00123074920000B727D
:1008C0002368DB699847012070BD01F0DBFE01233E
:1008D0002B70F1E730CB0020A004002010B50400FD
:1008E000036804499B6998472368200002491B6AF2
:1008F000984710BD88040020A00400200020704705
:100900007047C04610B501F0E9F8002905D0FA2279
:100910000023920011F0E0F910BDFA21890011F0D6
:100920009DF9F9E783680830002B04D107E018002F
:100930001B68002B03D09942F9D1002003E000236B
:10094000016001200B6070478368002B08D08B4248
:1009500002D107E0994206D018001B68002BF9D19C
:100960000020704708300B6803600120F9E7C0469B
:1009700043680430002B04D107E018001B68002BEB
:1009800003D09942F9D1002003E000230160012047
:100990000B6070474368002B08D08B4202D107E000
:1009A000994206D018001B68002BF9D1002070472F
:1009B00004300B6803600120F9E7C046F0B55746E4
:1009C000DE464646C0B53E4B82B05C681B6800936D
:1009D000019483688246002B2CD0082353449B4605
:1009E00001F07CF853469B6804000D005F46002B25
:1009F00020D000221E0094469846B268F36820007A
:100A00002900801A9941002902DB14001D00BC4610
:100A100037003668002EF0D162464346002A48D09F
:100A2000116850460B6813604B68984753469B68A3
:100A3000002BD5D153465C68002C29D000255646A2
:100A4000237A002B31D0210063682572300098474B
:100A50002468002CF4D1B168B246002918D0009C5B
:100A6000019D0E0003E004000D00002E0ED03300A7
:100A700022009868D9682B00121A8B413668002B27
:100A8000F1DCF2D1002AEED1002EF0D100940195D4
:100A9000009B019C5246180021001361546102B072
:100AA000E0BCBB46B246A846F0BD2468002CC7D1C6
:100AB000D1E7190053465C68002CBFD1CFE7C04690
:100AC000487001100FB400B5084883B013F030FA35
:100AD000049B002B07D005A91800019113F06CF8B6
:100AE000034813F025FA012013F07EF83453011067
:100AF0004C6E011070B50F4C0F4D104A24184D412B
:100B0000A900A00F0843A90F69400D4B604011F0E8
:100B100017FC4A01C30E1343CA0E58405140094BFB
:100B2000094A11F00DFC4A00C30F1343CA0F584085
:100B3000514070BD157C4A7FB979379EB9E5E41CF8
:100B40006D4758BFBB49D094EB113113F0B5046821
:100B50004568060023002A00C6468068F168034302
:100B60000A4300B5134304D100F0B8FF03000B4360
:100B7000FAD02A06230A6040270613432A0A3A437A
:100B8000070CBC4669404B40984663460F041F4320
:100B9000424003045A4043467B4032607360C20EB9
:100BA0004B011343C90E40010843B360A10FAB00D2
:100BB0000B43A20012196B41F060D901500E08439B
:100BC000D201590E11430C0005004B0FC10019430F
:100BD000E0000019694180BCB846F0BDF0B5DE46C2
:100BE00057464E464546E0B5BC4991B00891097854
:100BF000002900D1E5E00CAB9846B94BB94C029303
:100C0000B94BBA4E059310220599404611F01EFCCF
:100C1000B74B06931B78DBB2079300F05FFFFFF73B
:100C200069FF0C9B4340089343465B684B40099324
:100C3000B04B9B69DB0433D5AF4BDA6BE023134039
:100C4000402B2DD0EFF305839A46AC4B276899468D
:100C500000239B463300564665689A4638002900B3
:100C6000002E1AD000F0C6FFEFF3108272B64B468A
:100C70001B68002BFBD0BFF35F8F2368BB4212D0F1
:100C8000BFF35F8F4B465946196082F3108827687F
:100C9000656838002900002EE4D100F015FEE3E776
:100CA00010F0D0FECEE76368AB42E9D1914B15005E
:100CB000DF6900F013FF0A220023801859410B005E
:100CC00080215646020009068B4202D301228C4B3A
:100CD000524201200CC43268736892185B4138405C
:100CE000104300240092019330607360BFF35F8F64
:100CF000824A146085F310880199FFF7FBFE434692
:100D00009B68424658404346DB6890604B40D36046
:100D10007C4A029B94461B787B4ADB0063449868BC
:100D200090424CD00021FFF7E5FE089B43400C9316
:100D3000099B4B40190043465960EFF3108572B68A
:100D40006E4A1368002BFCD0BFF35F8F069B079A97
:100D50001B78934214D005980C9A036841685A4056
:100D600043465B680C9242464B40536092688368EE
:100D7000C1685A404346DB684B4041468A60CB60BD
:100D80004046FFF7E3FE102206000C00059841469E
:100D900011F05CFB069A13780133DBB21370BFF3DA
:100DA0005F8F0022554B1A6085F3108830002100B8
:100DB00011B0F0BCBB46B246A946A046F0BD9C604F
:100DC000B0E7524D524CAC4620686168514DA24686
:100DD000A84600920193850D8F0286022F433400AE
:100DE0003D0024184D41A30E9946AB0101934B469B
:100DF000019A1A43A30100930192009C019D241AB9
:100E00008D412000644608CC290002930023A446AB
:100E10000393029C039D00196941C445DBD15446EC
:100E200020606160FFF766FE0CAB98460C9B434068
:100E3000029343465B680AA84B40059300F02CF9E7
:100E40000A980B99FFF756FE43469B68434006936A
:100E50004346DB684B400793264B9B69DB0400D479
:100E6000F4E0254BDA6BE0231340402B00D1EDE09A
:100E7000EFF3058300249A46002340250093019454
:100E80001E4B2E0099465546C346164C0023B046CD
:100E900027682E0065689A4638002900002E1AD06F
:100EA00000F0A8FEEFF3108272B64B461B68002BD1
:100EB000FBD0BFF35F8F2368BB422DD0BFF35F8FA2
:100EC0004B465146196082F31088276865683800E0
:100ED0002900002EE4D100F0F7FCE3E737CB002037
:100EE0002DCB0020B00C0020D0000020C00000203E
:100EF0002ECB00200000064000800040300100D0D2
:100F0000FFFFFF7F00000340FFFFFF00001C0420E5
:100F1000C8000020002004206368AB42CED1350019
:100F200046469046009A019B1000190080185941CE
:100F30004B4BDA690123134003430093019100F006
:100F4000CDFD0A220023801859410B0080210200A8
:100F500009068B4202D30122424B52422260636057
:100F6000012E5ED10098019935003F4E4746306012
:100F70007160D846BFF35F8F3C4B994600234A46C9
:100F8000136087F31088FFF7B5FD029B43400C9375
:100F9000059B4B4019005B46596000F09FFDFFF731
:100FA000A9FD069B434018005B469860079B4B4099
:100FB00019005B46D960EFF3108772B64B461B6889
:100FC000002BFBD0BFF35F8F089B1B78002B31D128
:100FD000274BDA681F2A3CD05A691F2A3AD0DA69AF
:100FE0001F2A39D05B6A03251F2B33D010F02AFD4E
:100FF000FF25FF231F4AED0013701F4B02929C46F2
:10100000052365446B604046FFF7A0FD1B4B102293
:1010100018004146059311F019FA0123089A13703C
:101020000CE0BFF35F8F00234A46136088F31088FB
:10103000013E2BE70F4B0293104B0593BFF35F8FDD
:1010400000220A4B1A6087F31088DCE510F0FAFCE6
:101050000EE70025EBB2CDE70225EBB2CAE7C046AA
:1010600000000640FFFFFF7FC0000020300100D0DD
:10107000000003402DCB002008000340D0000020DA
:1010800010B5FFF7ABFD10BD10B5024800F00CF82D
:1010900010BDC046C0C9002010B50822014911F09A
:1010A000D5F910BDC0C9002010B588B004000D22CC
:1010B0000021684611F0C4F90D22002104A811F0A6
:1010C000BFF94B236A466846137004A90D2213F03A
:1010D000BFFE152108222000694411F0B7F908B0BD
:1010E00010BDC046EFF3108072B6034A1368002BA0
:1010F000FCD0BFF35F8F70472C0100D0BFF35F8F30
:101100000022024B1A6080F3108870472C0100D037
:1011100070B5EFF3108C72B60D4D2B68002BFCD020
:10112000BFF35F8F0724CB08C618C05C01230C40B7
:10113000A3401C000440034207D118433070BFF3A2
:101140005F8F2C608CF3108870BD1000FFF7BAFC25
:101150002C0100D0F8B54746CE46884680B5EFF35F
:10116000108C72B6214D2C68002CFCD0BFF35F8F21
:101170009A422CD8D4080727055D06190124174088
:10118000BC402C421FD007210127894609E0D40822
:10119000055D06194C4639001440A1400C00294257
:1011A00011D001329342F2D201204042BFF35F8F4F
:1011B00000220E4B1A608CF3108800280FDBC0BC95
:1011C000B946B046F8BD254310003570EEE7BFF3D1
:1011D0005F8F00232B608CF3108801204042434630
:1011E000002BECD00898FFF76DFCC0462C0100D016
:1011F00030B5EFF3108C72B60A4C2368002BFCD08C
:10120000BFF35F8F072301220B409A40CD08435D57
:1012100093434355BFF35F8F002323608CF3108803
:1012200030BDC0462C0100D0044A1078431CDBB20C
:10123000172B00D9102313707047C046B00400204C
:101240000021044B044ABFF35F8F02C39342FAD1DB
:101250007047C046000100D0800100D0142310B5B3
:101260000100188804331B88984710BD162310B559
:101270000100188802331B88984710BDF8B547460F
:10128000CE4680B50F1E19D01423994604330400AE
:101290000025012698464B461888434621681B883E
:1012A000984701C4431E9841013540420640AF4271
:1012B000F1D13000C0BCB946B046F8BD0126F8E710
:1012C0000A4B1968EFF3108072B60A68002AFCD046
:1012D000BFF35F8F1B68BFF35F8F00221A6080F33C
:1012E000108840BF002000217047C046D0CA0020AF
:1012F000F0B5DE4657464E464546E0B583B0EFF3BF
:10130000058203231340B54A990052580091904634
:1013100001229A40B24B93461A60B24B01932EE0E1
:1013200043469B881BB2002B00DB99E043469B7928
:10133000002B00D0DDE0434608241C5F002C00DABF
:1013400006E143465A6963001B19DB00D3189D6808
:10135000DC686B1C00D107E1A34B00999C466144FB
:101360009A6A0B69A81A9B1A984200D20D619E488E
:1013700000F0ACFB8C4200DDEAE000D126E15B46E8
:1013800099484363434608229B5E9946002BC7DB7E
:10139000424652695B0092464B44DB009A445346F6
:1013A0009E68DF6800F092FB8F42B9DC00D100E15B
:1013B000002F00DAE1E05246534654691B69019A56
:1013C000934200D1D4E0414652460820085E52883C
:1013D000000421001043984704000D0023002B4314
:1013E00000D1CAE0002D00DBE7E030003900001B2F
:1013F000A94153469860D96000229A5E002A8FDB8B
:1014000043465D6953009C18E4002C19A768E46802
:101410008C4200DD84E702D1874200D980E746464E
:10142000328108360DE08C4200D1D3E01E0000234B
:10143000F25E002A0ADB53009C18E4002C19A7680E
:10144000E4689B18DB00EB188C42ECDD53461A80F5
:101450004B46338043469B881BB2002B00DA65E77E
:1014600043461A69EFF3108172B61368002BFCD063
:10147000BFF35F8F43469E88012342465B429380C1
:1014800036B21369BFF35F8F00221A6081F31088B0
:10149000002E00DA4AE743465D69083342469C461F
:1014A0007700BF19FF00EF19BB6860469846082314
:1014B000D15E9246FC68002907DA0EE0A2424FD0C6
:1014C00018000023C15E002906DB4B005B18DB001F
:1014D000EB18DA68A242F1DD524606800023FE5E78
:1014E0003980002EDCDA904643469B79002B00D1F0
:1014F00021E7002342469371434646460821595E40
:1015000008364B1C24D047468946556902E0060040
:101510004B1C18D04B005B18DB00E8180A008C4607
:10152000E95E43881BB2002BF1DA01235B42DC1732
:101530008360C4604A4503D031803B8903803A818F
:10154000E1464B1CE6D14C46B846002C00DBF8E6E1
:1015500040BF03B0F0BCBB46B246A946A046F0BDB2
:101560009A684245ACD9B7E7631C00D0F4E6FEE6C2
:10157000200023699847002825D1534642461B88FE
:1015800013811269EFF3108372B611680029FCD041
:10159000BFF35F8F4246514652880A804246494611
:1015A00051801269BFF35F8F0021116083F31088AF
:1015B000B6E6864200D8FBE6B2E60B4800F086FAB3
:1015C0000019694115E76568246807E7854200D876
:1015D000D5E6BDE7874200D828E737E7E0B9002025
:1015E0003C700540F11200100040054070B52E4CD3
:1015F0002569002D04D00A212C4800F0E3FD70BDC0
:101600002B4E0321300000F057FAE660FFF70CFE86
:10161000284B03229C46D02322701B061B68012105
:101620006370254B6044A3600F238000206102207B
:10163000638063694942A18019800231198647316C
:101640001D83585218315A5275325C3999521832EA
:10165000013199521832013199521832013199529F
:10166000083518329D520231183299521832013120
:101670009952183201319952183201319952183267
:10168000013199521832013199520C4B0C49DC60EE
:101690000130356200F0EAFA0121032000F0CCFAB3
:1016A000084B1D60A7E7C046B4040020D0CA002044
:1016B0000040054040000034FFFF1000E0B900206A
:1016C000F11200103860054000487047B404002053
:1016D000F8B51F0008AB1B7804001600002B08D1DA
:1016E00000F0FCF932003B00121A8B41002B00DAAB
:1016F00053E02269EFF3108072B61368002BFCD020
:10170000BFF35F8F0223E15E63694A005218D20083
:101710009B18002937DB1A8862802269BFF35F8F2C
:101720000025156080F31088069A9E60DF601A61BC
:10173000079A5A615A8801325204520C101C002A2E
:101740001FD082B25880080410432669EFF3108737
:1017500072B63268002AFCD0BFF35F8FA2881A806D
:10176000A1802369BFF35F8F00221A6087F310887E
:101770000B4923788C4601329A40E36863441A602F
:10178000F8BD0120DDE72369BFF35F8F00221A60F7
:1017900080F3108801204042F2E70020F0E7C046C5
:1017A0003C20000070B501000469EFF3108C72B6A4
:1017B00020680028FCD0BFF35F8F02200D5E4C69CB
:1017C00068004019C0002418002D37DB20884880AD
:1017D0000869BFF35F8F002606608CF31088E36012
:1017E00063880498013320615B0405985B0CA26058
:1017F00060611A1C002B1FD093B22804628018432A
:101800000A69EFF3108C72B61368002BFCD0BFF39B
:101810005F8F8B8823808D800B69BFF35F8F0022E1
:101820001A608CF310880B7801329A40CB68084913
:101830008C4663441A6070BD0122DDE70B69BFF37B
:101840005F8F00221A608CF3108801204042F2E77B
:101850003C20000010B543890A1493421ADD53005E
:101860009B184269DB00D3180469EFF3108C72B641
:101870002268002AFCD0BFF35F8F5A88090494B213
:10188000090C8A4208D00369BFF35F8F00221A60F7
:101890008CF31088002010BD8022120214435C805B
:1018A000012302698371BFF35F8F002111608CF304
:1018B0001088044902788C469340C2680120624433
:1018C0001360E8E73C200000F0B504000D00062698
:1018D0007642F717C64636196F4100B582B08F427F
:1018E00014D811D000F0FAF832003B00121A8B41E4
:1018F000002B17DC002B47D02000290000F07AF9DC
:1019000002B080BCB846F0BD8642EBD9002200236D
:1019100016001F0000F0E2F832003B00121A8B4163
:10192000002BE7DD00F0DAF832003B00121A8B41A1
:10193000002B0ADB00230193154B3200009315485E
:101940003B00FFF72FFF0028D6DB00239C46B04664
:10195000114A124E736A9F4204D8B16A8845CBD9A6
:101960009F42C9D11168EFF3108072B60B68002B4B
:10197000FCD0BFF35F8F1368BFF35F8F61461960C0
:1019800080F3108820BFE5E7002AB5D0CAE7C0463B
:10199000C1120010B4040020D0CA0020004005404D
:1019A00070B5060000F09AF8FA2204000D0000233A
:1019B00030000021920010F0C3FC8023001969411F
:1019C0001B06994202D3012002494042FFF77CFFE7
:1019D00070BDC046FFFFFF7FF0B5CE46474680B5DD
:1019E00004000D0083B0EFF305878846002F3ED139
:1019F0002E4EA1463378F06804339B00816A1B5851
:101A0000601A5B1A98420ED320BF294900204B6A06
:101A1000AB4203D38A6A0130944231D803B0C0BCD0
:101A2000B946B046F0BD00F059F822002B00121A5A
:101A30008B41002B2FDB1F4B2200009330002B002B
:101A40000197FFF7AFFE011E25DD194B5A6AAA4226
:101A50001BD220BF3000FFF7FDFE154A0020536A5D
:101A60004345DBD3926A01309145D7D908E010494C
:101A700000204B6AAB42D1D38A6A0130A242CDD258
:101A80005B1B5A1E9341D8B2C8E79B6A9C42E1D9BE
:101A9000AA42DFD1DDE7064A0020536A4345BDD3A1
:101AA000926A01209145B9D9EAE7C046B404002002
:101AB00000400540C112001010B5024A0248FFF76D
:101AC00027FB10BD44530110601100200300416A40
:101AD0000A00986A596A8A42FAD17047034B596AD8
:101AE0000A00986A596A9142FAD17047004005404D
:101AF00070B504000D00174A536A1900966A536ABC
:101B00008B42FAD13000190024184D41AB4216D84F
:101B100013D0104A2B00526A954203D90D494A6AE4
:101B20009A42FCD39A4207D10A4A02E0516A99428A
:101B300002D1916AA142F9D370BDA642E9D9054B01
:101B40005B6A1C005A1CEFD0012301246442E51794
:101B50005B42E3E700400540244B70B598420BD848
:101B600043011B1A224A9B001818916AC000936A0D
:101B70005B1A9842FBD870BDFA2200239200002124
:101B800010F0DEFB04000D00194A536A1900966A32
:101B9000536A8B42FAD13000190024184D41AB42F0
:101BA00018D9134B5B6A1C005A1C0AD0012301246C
:101BB0006442E5175B420E494A6A9A42FCD39A4254
:101BC000D9D10B4A02E0516A9942D4D1916AA1421B
:101BD000F9D3D0E7AB4205D0054A2B00526A9542B3
:101BE000E9D8ECE7A642F7D9DBE7C0469BC4200062
:101BF00000400540064A536A9942FCD807D1044B7D
:101C000002E05A6A914202D19A6A8242F9D370473D
:101C100000400540054B064A1360064A13605360B6
:101C20009360D360136153619361704780808080BB
:101C300000E400E004E400E01F2318401E3B834062
:101C4000002905D0C021044A490053501360704751
:101C5000802201498B50FAE700E100E00123834034
:101C6000014A13607047C04600E200E070B50D0005
:101C7000EFF3108672B60F4A1368002BFCD0BFF347
:101C80005F8F0D4B10309B6884001B590B4A9342A9
:101C900003D09D4201D00FF0D5FE074B9B681D512C
:101CA000BFF35F8FBFF35F8F0022024B1A6086F392
:101CB000108870BD240100D000ED00E0CD010010BF
:101CC000F0B557464E46DE464546E0B585B00600BF
:101CD00000911700EFF3108B72B66A4A1368002B5D
:101CE000FCD0BFF35F8F0025674B5D579A46002DF0
:101CF00000DAA9E06B00654C01935B199B009846E4
:101D0000A146C1444B4652469B7910361370604B36
:101D1000B6009B6899590B1B2F2B33D95D4B994209
:101D200000D0ACE0019B42469C465B4B6544AD0055
:101D300063535A4B0232A218043B9B1A1B05584AA4
:101D40005B0D651913436B80564B0121AB80FF235C
:101D5000AB71009BEF71AB604B460B4319004C4BD2
:101D60009B689951BFF35F8FBFF35F8F0022454B94
:101D70001A608BF3108805B0F0BCBB46B246A9468A
:101D8000A046F0BD01200A008243D3798C46BB42B5
:101D900031D84546130044491B1B5B415943090D8B
:101DA0003D4B63533D4B02356519043B5B1B1B05E3
:101DB0003B4D5B0D2B43AA464D466B800425AC463C
:101DC0005546E044131F44441B1B1B055B0D1D437C
:101DD0004B46997100999D8099604946DF71334B5C
:101DE00001431360BBE75800C01880002018C17978
:101DF000B9422FD902000623D356002BF3DA0293FF
:101E00002B4B61460393131D9A4604235B429C4669
:101E1000E14450464B461B1A1B055B0D9C46204B6C
:101E2000957198466346404603439380019B5A1937
:101E30009200039BA418A380029B1C4AA371009BE1
:101E40002260E771A3608AE70FF0FCFD002553468E
:101E50005D574FE7908802934005131D9A4603157E
:101E600061469C464046D444634604302018181A04
:101E7000E0230005400D1B0218430390C5E70FF057
:101E8000E1FD4FE7240100D033CB0020CC0400203B
:101E900000ED00E0CD01001000A1FFFFFC040020D8
:101EA00000E0FFFF01BDFFFFAAAA00000148804734
:101EB00001BD0000F0B5DE4657464E464546E0B54A
:101EC0000C0083B0EFF3108872B6634A1368002BDE
:101ED000FCD0BFF35F8F614B61499A6803001033F8
:101EE0009F00D55900938D4243D0A54254D05D4EFA
:101EF000AA1B2F2A3DD85C4B9C461B689A4601239F
:101F00001A0099468240534613401F2201934B46C4
:101F1000024093409A468022634650469850BFF351
:101F20005F8FEFF305839B46002B37D0009B5B450B
:101F300001D00FF087FD2A004B469A4390688442F7
:101F400008D177E04B005B189B00F3189868844237
:101F500036D01A00062151560029F3DA844255D0B2
:101F6000019B002B27D0C02251463F4B5200995075
:101F700019603A4B9B68DD51BFF35F8FBFF35F8FF2
:101F80000022354B1A6088F3108803B0F0BCBB46C2
:101F9000B246A946A046F0BD0D00EAE72A004B462E
:101FA0009A4390688442D5D1062010561300002829
:101FB0000ADA0D0032E0802351462B4AD150D8E78F
:101FC00006201856002822DB4200111889007418D8
:101FD0008946A1689960E179D971062161569971A4
:101FE000002925DBA488F11A640524154C4409193D
:101FF000E0240905490D24022143998013181B4A46
:102000009B001178F31899711070A9E713005946D5
:10201000002914D1FF3191711549918013490A7833
:102020009A71144A9B1B5B415A43120D0A7097E741
:102030001149E2E70620105613000028C4DA0F4ABF
:102040000F49D21A083A5002400D014399800D49B8
:1020500052080A43DA8083E7240100D000ED00E053
:10206000CD010010CC04002000E100E033CB0020C3
:1020700001BDFFFFAAAA000001BD00000605002067
:1020800000F0FFFF00F8FFFF10B5830804000320F5
:102090002040FF24054AC0009446844081409B00B4
:1020A00063441A68A2430A431A6010BD00E400E0CA
:1020B00070B501240443EFF30581EFF3108C72B681
:1020C000214A1368002BFCD0BFF35F8F1F4B050024
:1020D0001F4AED1A6D416A43120D1E4D8900AE680C
:1020E00052B27658A6421CD00621595691421CD0B5
:1020F00012215956914222D01E215956914220D088
:102100002A2159560324914210D0134B19781A7082
:102110008171BFF35F8F00220B4B1A608CF3108824
:1021200070BDAB680D4C5C50EFE7002461000919ED
:1021300089005B18FF21997109499980E5E701241D
:10214000F4E70224F2E7C046240100D0CC040020CA
:10215000AAAA000000ED00E033CB0020CD01001062
:1021600001BDFFFF1F2110B5091A0248FFF740F813
:1021700010BDC0463CCB002010B5084B084C82B0C7
:1021800001000093002205232000FEF7E3FF002852
:1021900001DB1F23181A02B010BDC046685301109E
:1021A0003CCB002070B504000E001500FFF73CF892
:1021B0000100200000F006F8A680E580BFF35F8FE5
:1021C00070BDC046024B9C46614489000160704767
:1021D0004000003470B5114C114DAC420FD2FF26B7
:1021E0002368002B0CD0FFF71FF801002000FFF739
:1021F000E9FFA680BFF35F8F0834AC42F0D370BD17
:10220000FFF712F801002000FFF7DCFF2671BFF393
:102210005F8F0834AC42E3D3F1E7C046E00A002008
:10222000E80A002010B50400FEF7FEFF01002000C0
:10223000FFF7C8FFFF23A380BFF35F8F10BDC04629
:10224000F8B5DE464E4657464546E0B58B46050096
:102250000A99180016000FF001FD0A9B6C001F027E
:10226000324B64199C46A4006444636881469F42D3
:1022700000D967602B1FDBB29846012B30D9C023F1
:1022800080229B01E31812011A60294BAD005959B5
:102290009A4600291BD17301E026226853401E4054
:1022A000802342465B01E3181E60012A30D9802357
:1022B00080229B01E31812011A6053464A46676068
:1022C0005A51F0BCBB46B246A946A046F8BD586973
:1022D0000FF0C4FC013043001B18033BFDD2DAE7CA
:1022E0005B46012BCBD1C02303229B01E3181A606C
:1022F000023AA3681A42FCD07301E0262268AD00BE
:1023000053401E4080230A4A5B019246E3181E6038
:102310005A462168514003220A401A6001225B4656
:102320009A40A3681A42FCD0C1E7C0460080004032
:1023300068110020F0B546464F46D646C0B51F008E
:10234000344B44009C462418A400644463688846C7
:102350001600FF2B02D880235B006360031FDBB2F3
:102360009A46012B30D9C02380229B01E318120129
:102370001A60294B85005959994600291BD17301D0
:10238000E026226853401E40802352465B01E3183A
:102390001E60012A30D9802380229B01E31812019C
:1023A0001A6080235B0063604B465F51E0BCBA4615
:1023B000B146A846F0BD58690FF050FC013043000B
:1023C0001B18033BFDD2DAE74346012BCBD1C023D8
:1023D00003229B01E3181A60023AA3681A42FCD058
:1023E0007301E0262268850053401E4080230A4A7C
:1023F0005B019146E3181E6042462168514003226A
:102400000A401A60012342469340A2681342FCD05E
:10241000C1E7C0460080004068110020014B8000E9
:10242000C058704768110020094A83009A1810B5F7
:1024300014684022544080322240064CC000A4461A
:1024400063441A60044B9C466044416010BDC04622
:1024500004C0014004D0014000400140074B80000F
:10246000C3181B68C90092000A435A400C2313404A
:10247000034A9446604403607047C04604C001406C
:1024800004D001408000002905D0064B9C46022361
:10249000604403607047044B9C4602236044036021
:1024A000F8E7C04604E0014004F00140D0231B06D9
:1024B0001B6830B50500584243412F205B428343DF
:1024C0000E48EC0884460720284080008140200008
:1024D0000B4D3C3063448000A40041511B19002A7D
:1024E00005D08022920194466344196030BDC02219
:1024F0009201944663441960F8E7C04630410140B8
:1025000000400140D023F0B5C6461B0698461B6824
:102510000C4F9B001600FA5804000D0000B5104245
:1025200009D1290014430D203200FC50FFF7C8FBED
:1025300080BCB846F0BD0FF085FA43461B689B008F
:10254000FA58EEE7ACC9002010B504000D20FFF7E3
:10255000B1FCD0231B061B6802499B005A58A243BA
:102560005A5010BDACC900200123D022834012066E
:1025700093629361094A83009A181168402251407E
:1025800080320A400649C0008C4663441A60054BFD
:102590009C460523604443607047C04604C0014028
:1025A00004D0014000400140F8B5040021481E005D
:1025B00017000D000FF052FB010038000FF04EFB2A
:1025C000069B36041B031E432368002B20DB1A4B9B
:1025D0001A49E3185A1E93418022920194465B42A5
:1025E0001B0B174A1B0363441360164A13601F003A
:1025F0000A689743FBD1144B2560E2182123A060A1
:1026000013602368002BFCDA0823E6601360F8BD32
:102610003F2322681340AB42D9D1A3681B051B0D91
:102620008342D4D1EE22E368D2021340B342CED12A
:10263000EDE7C046001BB7000040FDBF08C00040EA
:1026400000E0004000F00040043000008023024A17
:102650009B000B43D362704700800540AA23064AC3
:102660001B0113602F230549D360054B1960536884
:10267000002BFCDA7047C0460040024000B0FA0070
:102680000060024010B501F03FFC00F059FB00F083
:1026900021FD00F0C5FD06F0B3F801F0C3FC00F029
:1026A00085F906F01FF810BD40BA80B27047C046E9
:1026B00000BA7047F0B5C646584D04002B688846EE
:1026C00000B5002B03D02A7A824200D17CE0544E20
:1026D0002701EB68002B02D02A7DA2426AD0AB69A9
:1026E000002B03D02022AA5CA24259D06B6A002B97
:1026F00003D02C22AA5CA2422CD03B191B01F31858
:10270000DB7B002C35D0B27A022A68D0012C35D080
:102710008D225200B25C022A00D172E0022C31D02C
:10272000404AB25C022A00D172E0032C2AD1032B6A
:102730000DD83D4D9B00585906F0BCFB00223F19B7
:102740003F01F719FB7B9B005A510423FB7380BCAC
:10275000B846F0BD3819000110304146AA6A301859
:10276000984700236B623B191B01F318DB7B002C9D
:10277000C9D18D225200B25C022A3BD0294AB25CF8
:10278000022A32D0294AB25C022AD0D1284AB25C4D
:102790009A42CCD104223B191B01F318DA73D6E715
:1027A0003819000110304146EA6930189847002373
:1027B000AB619BE738190001103041462A69301897
:1027C00098470023EB608AE707013818144E000190
:1027D00010306A683018984700232B6079E7F27B45
:1027E0009A42D7D0012C93D1C8E7124AB25C9A42E0
:1027F000C8D1CFE72022FF32B25C9A4200D08FE7E7
:10280000C8E72022FF32B25C9A4200D086E7C1E7D7
:10281000084AB25C9A4200D087E7BBE7881B0020D9
:10282000C01B00202A020000781B00203A03000091
:102830003F0300002F020000564BF0B54546DE4630
:1028400057464E4698460301E0B59B461D18434641
:102850002D015E19F37A070089B0012B00D996E0AB
:102860004D4A9B00D4580192002C00D185E01035D0
:102870004544280012F070F9A022123081B2920073
:10288000362000F0EFFE8146002869D005AC0C220E
:10289000002120000FF0D4FD3089FFF705FF012350
:1028A0002080A3700C22FF3321004846A38001F052
:1028B00091F93A4B0C269A464346013D0297039301
:1028C0006A786F1C3B0000242E2A07D15AE05A7800
:1028D0000134E4B2591C2E2A49D00B00002AF6D14B
:1028E000DA1B92B290461D002200B218524534DC29
:1028F00022003100484601F027FA731C9BB2A4194C
:1029000042463900484601F0A1F9A4B22B78661C72
:10291000B6B2002BD4D1039B002231004846984622
:10292000029F01F011FA1E4B02340422049304A901
:10293000A3B2484601F08AF93B0001995B448C46FA
:102940001B014344DA7ADB7B16499B0092005858FE
:1029500062443523494606F03BFA484600F0D8FF6A
:1029600009B0F0BCBB46B246A946A046F0BD5B1B11
:102970009BB2984622000D00B7E70021FFF79AFEB0
:10298000B472EDE700233D0000229846ADE706480B
:10299000FEF798F8C01B0020B81B0020FEFF0000C7
:1029A00000010001781B0020845301107047C046CD
:1029B000012800D97047054B8000002902D00A6821
:1029C000C250F7E7024A1268C250F3E7B81B002072
:1029D00044730110F8B5DE4657464E46454602237D
:1029E000E0B5474E002534009B460027A37A022B12
:1029F00039D030D8002B22D08D235B009846414B34
:102A00009946414B9A46FEF73BFBB37A80B2022BC4
:102A100041D04346F35C022B44D04B46F35C022B7F
:102A200049D05346F35C022B4ED05B46A372012380
:102A30002081E772280023736773FFF7FDFE0135DD
:102A40001134EDB2FF34042DD0D1F0BCBB46B246F8
:102A5000A946A046F8BD032B4FD12368002B13D104
:102A60000023A372EBE7237B013BDBB22373002B34
:102A7000E5D1637B0133DBB26373042B2AD023736C
:102A80002800FFF7D9FEDAE7013B2360002BD6D1FF
:102A90000023A372D3E733898342B4D04346F35C67
:102AA000022BBAD11733FF33F35A8342ABD04B46D4
:102AB000F35C022BB5D18A239B00F35A8342A2D048
:102AC0005346F35C022BB0D1CE239B00F35A8342D2
:102AD000ABD198E7E37A002B08D10C4A5268002A60
:102AE00004D001226373E2722273C9E70021280037
:102AF000FFF7E0FD0023A372A1E70548FDF7E2FF21
:102B0000C01B00202A0200003A030000B81B00206E
:102B1000B85301100123F0B51E00002506401842ED
:102B200005D0002953DD057801392D02013003223B
:102B300013000340104251D1072957DD07220839FD
:102B40000F0091430A00010004000831891822682F
:102B50009A189A429B415B42D21863680834D31892
:102B60009342924152429B18A142F0D1F9084A1C6B
:102B7000D2008018C9001A04791A120C1B0C9B1879
:102B8000012910DD02889B188A1E012A05DD448870
:102B90001B19052901DD81885B1851084C1C640054
:102BA00049000019511A012904D10278FE318D43E0
:102BB0001543ADB2ED182B0C2D042D0C5B19180C20
:102BC0001B041B0CC018002E02D180B2F0BD0020E7
:102BD000030600041B0C000E1843F6E7012903DD71
:102BE000038802390230A7E70023DCE71A00C5E7B3
:102BF000F8B557464E46DE464546E0B591460A9A38
:102C00008A4611681B680A04120C090C5218190430
:102C1000090C52181B0C9B181A0C1B041B0CD31804
:102C20001F0C1B041B0C0400FF18002825D00023D8
:102C30009B46FF3301269846658960682900FFF7A7
:102C400069FFC019070C0004000C3F182E4209D080
:102C50005B46414673403A069B463B0A120C0B40CA
:102C60001A4317002468002CE6D15B46002B04D0E1
:102C70003A063F04120C3F0E17435046FFF714FD6F
:102C800004004846FFF710FD2318DB191A0C1B043B
:102C90001B0CD318180C1B041B0CC018C04380B2AB
:102CA000F0BCBB46B246A946A046F8BD10B582B0FE
:102CB000049C0094FFF79CFF02B010BD10B5FFF715
:102CC00029FFC04380B210BDF8B5CE464746040088
:102CD00080B500282FD000239946FF330027012616
:102CE0009846658960682900FFF714FFC019070C32
:102CF0000004000C3F182E4209D04B464146734059
:102D00003A0699463B0A120C0B401A4317002468F6
:102D1000002CE6D14B46002B0AD038063B04000CB1
:102D20001B0E1843C04380B2C0BCB946B046F8BDC4
:102D3000F84380B2F8E70148F6E7C046FFFF00001D
:102D40000322094BFA219343084A09011360002228
:102D50001A71074A58181060012219600271054A59
:102D60005A50054A13607047FBB90020F0B90020A3
:102D7000F4B90020A00FA00F3C200020F0B5D646EB
:102D80004F464646C0B500285DD0830700D079E0A5
:102D900003003E4A083B12689A4200D96CE03C4965
:102DA0000C300C68844267D31979002967D0FA2067
:102DB00019885E88000181420BD8864209D8981A8A
:102DC00080B2804690198246B04505D000884045C3
:102DD00002D03048FDF776FE5018844238D045883E
:102DE0004545F6D100251D712B4DAC462D689D4201
:102DF00002D965462B601D009C4232D9834212D015
:102E00000779002F0FD184420DD0A84230D001881D
:102E1000FA2019800001814205D0444650184480B0
:102E20005E889019824653450DD05046007900289F
:102E300009D1AB4218D053461980FA231B0199429D
:102E400001D052185680E0BCBA46B146A846F0BD43
:102E500000251D71104DAC462D68AB42C9D39C4274
:102E6000CED80E48FDF72EFE634650461860E2E7C6
:102E700061461D000B60CAE70948FDF723FE0948BB
:102E8000FDF720FE0848FDF71DFEC046F0B9002002
:102E9000F4B90020405401103C200020745401106B
:102EA000FC53011018540110D8530110F8B5CE4648
:102EB0004746384ACB1C80B513400B2B3FD9FA222A
:102EC000120193423ED899423CD8334A1668864252
:102ED00056D8324A1268824252D90400083C2588EA
:102EE000A11B2A0089B2083A521A92B29A424AD3D6
:102EF00021D07719BC463F79002F25D1FA22120143
:102F0000954243D062461288254D91460A00083208
:102F10009B182F689BB2F21867452FD000251571BA
:102F20004D4651801580FA212380128809018A427A
:102F300001D0B2185380C0BCB946B046F8BD0C23CE
:102F40009942C2D90020F6E71F001437BFB2BA4237
:102F5000F1D30A0008329B18FA229BB2984612015C
:102F6000954213D00E4FF2183B68934200D93A6055
:102F700000274346177115805180D4E72A60CDE7BA
:102F80000848FDF79FFD0848FDF79CFD0748FDF741
:102F900099FDC046FCFF0000F0B90020F4B9002004
:102FA0003C20002090540110A8540110C854011076
:102FB000F8B5DE4657464E464546E0B500282ED0C9
:102FC0003D4BC61C1E40B3460B2E2FD9FA231B01C6
:102FD0009E4224D8584522D8384BFA279A461B6877
:102FE00059469946364B3F0118684B461B1A9AB210
:102FF0001B041B0C7F1ABB4211D208214942884690
:10300000C41894462579C25A19001300002D04D122
:103010004646711A891859450BD29742F0D80020BC
:10302000F0BCBB46B246A946A046F8BD0C239B4661
:10303000D0E75B461433994211D201235E462371D7
:103040000836204B1968A14520D0A619B1422CD3CF
:1030500020000830A407E3D01B48FDF733FD5E468F
:103060006346FA2708369B199BB23F01BB421FD02B
:10307000C1180A8062464A8001220D7123802271A4
:103080000A88BA42DDD082185380DAE7230004E0D0
:103090001B88C3181A79002A04D08B42F8D15346F2
:1030A0001960D2E752461360CFE70848FDF70AFDE2
:1030B0000748FDF707FDC046FCFF00003C2000204C
:1030C000F0B90020F4B900200C550110DC540110B7
:1030D000C854011024230022F0B54746CE4690463E
:1030E0009946033204249446124E80B5124B134F76
:1030F000B144414632683960614603338B43002C4A
:103100000BD015880021002200E003000132196075
:1031100058191900A242F8DB3B600436B14504D0CF
:103120003268976853685488E3E7C0BCB946B04634
:10313000F0BDC0465070011078B10020A0B9002049
:1031400010B5082812D80C4B8000C458FDF7D6FBE8
:10315000A3681C68002C07D022681A60A30707D157
:10316000FDF7CEFB200010BDFDF7CAFB0024F9E7F8
:103170000248FDF7A7FCC0465070011050550110E1
:1031800070B50C0008280ED800290CD0084B800020
:10319000C5588B0708D1FDF7B1FBAB681A682260F0
:1031A0001C60FDF7ADFB70BD0248FDF78BFCC0460F
:1031B00050700110745501100C2040427047C046F9
:1031C00070B5436816000A6804000D0082B09A4288
:1031D00001D102B070BD3360300001A9019202F04C
:1031E00083F8300001A905F091FE01A9300000F03C
:1031F0006BFE392329686160E25C343B1340052B88
:1032000005D0E369002BE4D020009847E1E70029CE
:10321000F7D01207F5D52000211D07F0ADFFF0E72C
:103220007047C046F0B54746CE4680B504000F0053
:103230009146984683B0002800D180E00B9B002B7C
:103240007DD0002900D18FE04B46002B00D188E0D3
:103250004346002B00D181E0474B002563610022EB
:10326000392320006560A560E56025860021E254D1
:10327000283004220FF0E4F80A9B404E63623C239E
:103280003278E5612562E2540C9B23613B68002B98
:103290005BD00021002000224B461B68984200D0E2
:1032A000A36043461B6899423CD1002A3DD02000D0
:1032B0000B9B9847002842D1314B9C461F683C230A
:1032C000E55CFF2D18D03C20002F1AD0BC424FD017
:1032D0003B00FF2207E01B68002B12D09C4247D026
:1032E000013A002A17D0195CA942F4D10135EDB298
:1032F000FF2D13D02554E9E7E05400253C20002F92
:10330000E4D1FE2D32D00135EDB2634627602000B6
:1033100035701C6014E01B48FDF7D4FB002300252A
:103320002354D3E7E360002AC1D12000390001AA69
:10333000FFF746FF20000B9B98470028BCD00020D9
:1033400003B0C0BCB946B046F0BD3900200001AAA8
:10335000FFF736FF0122A068E1689DE70A4B984617
:103360007AE7094B994673E7074F6DE70025CCE7ED
:103370000648FDF7A7FBC046B931001034CB00204A
:10338000C0B90020A85501104473011094550110D4
:10339000F0B504000D0017001E0083B0002922D0F4
:1033A000002F23D0002E24D02B680022002B15D014
:1033B0003B68A1688B4200D0A3603368E1688B4210
:1033C00003D1002A04D003B0F0BDE360002AFAD193
:1033D0006A4629002000FFF7F3FEF4E76268002A3E
:1033E00009D10122E4E7164D002FDBD1144F002E46
:1033F000DAD1134ED8E7684601A90193009201F093
:1034000073FF684601A905F081FD01A9684600F037
:103410005BFD39232A686260E15C343B0B40052B7D
:1034200007D1002A05D0090703D52000211D07F088
:10343000A3FEE369002BD4D0200098470122B7E710
:103440004473011070B5041E16D04368002B17D1C9
:1034500039220121A35C194224D11D4B1A68A242D2
:103460002ED01C4A1368A34204D126E01A68A24257
:1034700003D01300002BF9D170BD22681A60FBE75E
:10348000051D0021280001F02FFF0021280005F074
:103490003DFD0021280000F017FD39220121A35C29
:1034A0001942DAD018008843A0541B070BD4E369F3
:1034B000002BD2D020009847CFE723681360DBE7CA
:1034C00000221A60CDE7200007F0B4FAEFE7C0460B
:1034D000BCB90020C0B90020014B18607047C0463D
:1034E000BCB9002070B5041E15D03925435DDA073C
:1034F00011D401221343DBB24355C269002A01D023
:103500009047635D05221A40052A04D16268002AAB
:1035100001D01B0700D470BD2000211D07F02CFE38
:10352000F9E7C04670B5041E03D03925435D5A073C
:1035300000D570BD04221343435506F0DFFB05237D
:10354000625D1340052B05D0236A002BF1D02000CB
:103550009847EEE76368002BF6D01207F4D52000F9
:10356000211D07F009FEEFE710B500280AD0392227
:103570000421835C194205D08B438354036A002BDA
:1035800000D0984710BDC046021E0ED0084B1868E8
:10359000002809D03C2102E00068002804D0435CE8
:1035A0000133DBB29342F7D170470020FCE7C046FD
:1035B000C0B90020F8B505000026002826D00F2746
:1035C0000BE0012B24D0002B2AD12800FFF7D6FBDB
:1035D0000136F6B2002C19D02500FDF78FF9AC7B2F
:1035E000002C1AD0013CE4B2AC73FDF789F9002C31
:1035F0000CD12B7B2C683B40022BE2D12900082008
:103600000136FFF7BDFDF6B2002CE5D13000F8BD64
:1036100029000720FFF7B4FDDAE70348FDF752FA67
:103620000248FDF74FFAC046D8550110F055011079
:1036300010B5FDF763F90022084B1A70FDF760F929
:10364000074B1868002803D107E0C068002804D0A1
:10365000436F002BF9D001F091FE10BD35CB002057
:10366000E4CA0020F0B5C1234F464646D646804600
:10367000C0B50D00170004005B009A4250D0002234
:103680000C0491460C439F4208D83D00433BFF3B4E
:103690009D43012D24D03B48FDF714FAA0239B0045
:1036A0009F42F8D10300032703330335BB43BD43D7
:1036B0005B199BB21800103080B2AB422ED385420A
:1036C0002CD8FFF775FC061E16D04B460360434608
:1036D000C3181333BB4343602B4B8460C3600BE0C0
:1036E0000720FFF72DFD061E06D04B4684600360C1
:1036F000436007734373C5813000E0BCBA46B146EE
:10370000A846F0BDFDF7FAF80122204B1A70FDF72C
:10371000F7F8002E02D03000FFF74CFF0026EBE751
:10372000002398461A4B00269A4600230327994601
:1037300007E04246ED1AADB21060002DDCD08046A5
:1037400000240820FFF7FCFC0028DBD05246E31CD5
:10375000BB43D31A1A1C9BB2AB4200D92A1C494660
:10376000041993B2133442810A4ABC430160446095
:103770000581C260002EDCD1ED1AADB20600002D2D
:10378000DDD1B9E7045601108000010035CB0020DF
:10379000EC0500008200010070B5041E33D00289E0
:1037A0008A421BD98A1A07E0C91A238989B29B1851
:1037B00023812468002C20D063898B42F4D3227BA0
:1037C0000D040D43120701D18B4208D12068A5607A
:1037D000002801D0FFF7EEFE0023236070BD636870
:1037E00020001B1BC91889B2FFF760FB002807D017
:1037F0008442EBD00548FDF765F90548FDF762F90D
:103800000448FDF75FF90448FDF75CF96C560110B8
:10381000385601105056011020560110030070B5A3
:1038200000281ED080225202914218D2002914D0C2
:1038300002898CB2A21892B2944210D8057B012062
:103840007F2D0BD95D68691A1D001035A94205D37B
:10385000596059891A8164185C81002070BD01206B
:10386000FCE70148FDF72EF98856011010B5002835
:1038700015D080235B0299420FD200290BD04389D7
:103880008AB29A4209D89B1A446843810389611815
:103890009B1A41600381002010BD0120FCE7014814
:1038A000FDF710F98856011010B5002915DB002826
:1038B00029D000290FD003898AB2D3189BB29A422B
:1038C0001FD84468611A047B7F2C16D84160418957
:1038D000038152184281002010BD002813D04942B4
:1038E00043898CB29C420CD81B1B426843810389DC
:1038F00052181B1B42600381EDE704001034A14203
:10390000E4D20120E8E70148FDF7DCF88856011011
:1039100010B5002802D0FFF74DFE10BD0148FDF79D
:10392000D1F8C0468856011003000020002B04D0B7
:103930001B68013080B2002BFAD1704710B5041E0D
:1039400009D0FCF7DBFFA37B0133A373FCF7D8FF9F
:10395000A37B002B00D010BD0148FDF7B3F8C04693
:103960009456011010B5002816D0002914D0026812
:10397000002A01D111E01A0003890C891B19038167
:1039800013681000002BF6D110895389834206D1A9
:10399000088911601B18138110BD0200F4E701486B
:1039A000FDF790F8A856011010B50C0000281FD0A4
:1039B00000291CD00368002B07D0028921895218E6
:1039C000028118001B68002BF7D1028943899342BA
:1039D00011D1228904609B180381FCF78FFFA37B20
:1039E0000133A373FCF78CFFA37B002B06D010BD23
:1039F0000029FCD0F1E70348FDF764F80248FDF721
:103A000061F8C046A856011094560110F8B5474613
:103A1000CE46060080B5884691461F00002900D199
:103A20008AE00B89934200D286E0002800D183E02F
:103A30004B460289FB189A4200DA7DE000250EE031
:103A4000BA4242D0424612899A4236D0002E03D062
:103A5000728933899A4245D04B46002B5FD043464A
:103A600074895B89E41B5B1B9C4200D91C004C459C
:103A700000D94C464346706859682200C01949195C
:103A80000EF0E4FC4B463F192D1972891C1BA3B2A2
:103A90009946BA4253D343465B89AB4252D3CFD106
:103AA00043461B689846002B28D0BA420CD04246A9
:103AB0005B89128900259A42C8D143461B68002BB6
:103AC000C4D0062040422BE000253668002E1ED0D0
:103AD00043465A891B899A420AD000277289338942
:103AE0009A42B9D13368002BB6D00620404217E085
:103AF00043461B68002BE4D10027EFE74B46002B21
:103B00001AD10025BA42A1D1002736689EE74B465C
:103B1000002B11D143465A891B899A4204D00020B8
:103B2000C0BCB946B046F8BD43461868431E98412C
:103B3000052340429843F3E710204042F0E7034852
:103B4000FCF7C0FF0248FCF7BDFFC046D856011085
:103B5000F056011010B5002904D000230A89FFF7A0
:103B600055FF10BD10204042FBE7C046F0B5C646E9
:103B7000050088461700002600B5002826D0002939
:103B800024D0002F05D121E02D681B1B9BB2002DF6
:103B90001CD06C89002B01D0A342F5D2E41A221C60
:103BA000A4B2BC4200D93A1C94B2424669683F1B99
:103BB0009019C91822003619BFB20EF047FCB6B2F0
:103BC0002D68002F02D00023002DE2D1300080BCF0
:103BD000B846F0BDF8B5CE46474605008846914642
:103BE00080B5002824D0002922D0038993421CD319
:103BF00016000027002A02D112E0002D1BD06C898C
:103C0000B44200D9340043466868D91922000EF046
:103C10001DFC361B2D683F19002EEED1B9450DD184
:103C20000020C0BCB946B046F8BD01204042F8E7CC
:103C300010204042F5E70348FCF744FF0248FCF738
:103C400041FFC0460C57011024570110F0B5D6466D
:103C50004F46464605008A46C0B5002805D146E0D5
:103C60002D68DB1B9BB2002D41D06F89BB42F7D280
:103C7000298998188146814239DB9F4240D968687A
:103C8000C018FB1A9A422EDD9BB21A005146984684
:103C90000EF0DCFB4B46DF1BBBB29946002B1CD061
:103CA0002F68002F29D03B894B4520D34E46002456
:103CB00001E0002F1ED07D89B54200D93500434672
:103CC000191978682A0051440EF0C0FB761B3F6832
:103CD0006419002EEDD1A14515D10020E0BCBA46F3
:103CE000B146A846F0BD51460EF0B0FBF5E7012005
:103CF0004042F3E70548FCF7E5FE10204042EDE7BF
:103D00000348FCF7DFFE0348FCF7DCFE0C5701100C
:103D10003C570110245701100B0070B51500118994
:103D20001A00FFF79FFC041E06D0002329002A89F1
:103D3000FFF76CFE002801D1200070BD0148FCF7A0
:103D4000C1FEC0465457011005E043898B4205D897
:103D5000C91A006889B20028F7D1704743685A54DD
:103D6000FBE7C046F0B5DE46454657464E46804620
:103D7000E0B5514F83B03968786908F009FC4346D3
:103D80005A684E4B557A1C689B46002C00D18EE039
:103D9000002843D13C2300269946844604E0E3688A
:103DA0002600002B32D01C00237CAB42F7D1217AB5
:103DB000002906D048467B681B5C0133DBB2994280
:103DC000EDD12368002B02D079698B42E7D1012124
:103DD000637C194203D061683B699942DFD1636912
:103DE0009A46002BDBD0019221004246A069344B59
:103DF000D047002850D143465A68019B934258D17E
:103E000002239C46E3682600002BCCD1604603B019
:103E1000F0BCBB46B246A946A046F0BD0020012337
:103E200000269A46019004E0E3682600002B31D07A
:103E30001C00237CAB42F7D1217A002908D07B6893
:103E40009C463C236046C35C0133DBB29942EBD114
:103E50002368002BE8D15146637C194203D0616886
:103E60003B699942E0D163699946002BDCD001920D
:103E700021004246A069124BC84700280CD1434696
:103E80005A68019B9A4214D102230193E3682600E9
:103E9000002BCDD10198BAE7002E06D0E368F3607D
:103EA0005B461B68E3605B461C600120AFE70020B7
:103EB000ADE70448FCF706FE20200020B4C900202E
:103EC000302000206857011010B5002811D002687A
:103ED000002A0ED000290CD00B68002B09D0094B0A
:103EE0001B68002B05D01C68944203D0DB68002BB4
:103EF000F9D110BD0A681A60DB68002BF9D002689E
:103F0000F1E7C046B4C900207047C04610B5041E92
:103F100020D0037D042B03D0072B0AD0032B11D113
:103F2000200003F085FC0523002807D0431C0BD09C
:103F300010BD03F07DFC0028F8D109232000237573
:103F400003F086FF0020F3E70822638B0020134371
:103F50006383EDE70148FCF7B5FDC046B457011097
:103F600070B50600806F002803D0FFF7D1FC002356
:103F7000B367746F002C18D06068256800280CD0D7
:103F8000FFF7C6FC21000420FFF7FAF8002D0AD045
:103F90002C00606825680028F2D121000420FFF77A
:103FA000EFF8002DF4D1002373670123F46E5B4218
:103FB0003386002C16D06068256800280CD0FFF7E7
:103FC000A7FC21000420FFF7DBF8002D0AD02C000D
:103FD000606825680028F2D121000420FFF7D0F89E
:103FE000002DF4D1346F002C16D0606825680028AD
:103FF0000CD0FFF78DFC21000420FFF7C1F8002D45
:104000000AD02C00606825680028F2D12100042025
:10401000FFF7B6F8002DF4D100236822F36633676A
:10402000B35270BD10B5FDF72BF8044A80049446D6
:10403000034B800C6044188010BDC04600C0FFFFD9
:104040001805002010B5037D0100012B03D00220CC
:10405000FFF796F810BD0148FCF734FDC05701107A
:10406000F8B5CE46474680B5002961D0002864D017
:10407000037D002B5ED1002A2BD0314E3700103744
:1040800033681B68002B03D113E0DB68002B10D0D2
:10409000DC8A9442F9D11C68002C04D00D68002DF4
:1040A00001D0AC42F1D108204042C0BCB946B04674
:1040B000F8BD0436B742E3D10B68002B00D0036093
:1040C000204BC2821A681860C26004F0CDFA00204A
:1040D000EBE71D4B802698461A881C4B184F9C46D0
:1040E00010239946F601B944013292B2624514D0C8
:1040F0003D002B681B68002B03D111E0DB68002B0F
:104100000ED0DC8A9442F9D1013EB6B2002EEBD13A
:1041100043461A8002204042C7E7C0221202E7E766
:1041200004354D45E5D143461A80002AC4D1F1E754
:1041300007499BE706204042B7E710204042B4E71A
:10414000E0700110E8CA002018050020FFFF000001
:104150004473011070B5041E33D0037D002B30D1A1
:104160000320FEF7EDFF051E2BD00122236903611A
:10417000E38A0275C382627D4275A268826022680A
:104180000260002B0CD0154A13689C4204D11FE03A
:10419000DA68944217D01300002BF9D10023E360B2
:1041A000237D012B17D021000220FEF7E9FF0C4BE5
:1041B000AB610C4B1A681D60EA6004F055FA2800E8
:1041C00070BD0025FBE7E268DA600023E360E7E703
:1041D000E3681360E2E70448FCF774FCE8CA0020D7
:1041E000994B0010F0CA0020C0570110F8B5031E0B
:1041F0001BD0048DC16A466A5D8E0F4F601A80190C
:104200002A1CBD420CD892B2821A07D5891B09D448
:104210008022520291420BD200208CB25C85F8BD04
:104220003A1CF0E700240020F8E70448FCF74AFCB9
:104230000348FCF747FCC046D0160000D4570110D5
:10424000F8570110F8B500281DD0037D012B34D09C
:10425000048D1D4A61188BB293421BD91300466A24
:10426000458E1A4FC46A0385B218291CBD420BD86B
:1042700089B20919511A11D5A41B1BD480235B02E2
:104280009C421DD24485F8BD391C89B20919511AC6
:10429000F2D403E09C42E1D81A00E0E743850C4BDE
:1042A000121B9A42EFD90222438B1343438303F03C
:1042B000CFFDE8E700234385E5E70648FCF702FC6D
:1042C0000548FCF7FFFBC046A02D0000D0160000FB
:1042D000670B000014580110F8570110C14BF0B5DE
:1042E0004E469946DE46574645464A46E0B51B6867
:1042F00089B001331360BC4A1378059201331370FF
:10430000BA4B0793BA4B0693079B1C68002C00D14D
:10431000C7E000239B4649E0012290460B2B00D8C2
:10432000E8E0062D00D10FE1637A1B0758D5042D74
:1043300000D0EEE14B461F68236AFA21FF1A94234E
:10434000E35849009A469823E6580433E0587043EE
:1043500050440DF083FC874200D8C3E1434601334B
:10436000DBB298460123666F9A46002E00D1AAE17F
:104370004023E25E53009B185B00BB4241D9257D80
:10438000032D5AD0092D00D1FDE04346002B00D06B
:1043900099E1237F627F0133DBB2E56823779A429C
:1043A00000D804E1A3462C00002C7AD0257D002DF6
:1043B00000D1EDE1012D00D1E7E10A2D00D1E1E1CD
:1043C000059BA27F1B789A4200D107E1A377422385
:1043D000E35C022DA0D1052B00D88BE00123984689
:1043E000666F002E00D17AE14B461F68236AFF1AE0
:1043F00000239A464023E25E53009B185B00BB42B9
:10440000BDD87068356800280CD0FFF781FA3100FC
:104410000420FEF7B5FE002D0AD02E007068356826
:104420000028F2D131000420FEF7AAFE002DF4D1BD
:104430000023257D6367032DA4D14B46226A1B68A8
:104440009B1A282B00D8A5E09023E6582000FFF700
:1044500087FD5A46079B1B68002A00D16DE19C42EC
:1044600000D19EE1E368D3605346002B00D054E1B5
:10447000237D2569E768012B00D18FE1210002200F
:10448000FEF77EFE0023069C2370002E07D00D2130
:1044900028004942B0472378002B00D034E73C1E67
:1044A00084D1544E002431684D46002904D11AE0CD
:1044B0000C00C968002916D00B7D0A2B00D06AE1D8
:1044C0002B680A6A9B1AF02BF2D93368002C00D1B2
:1044D00040E1994200D167E1CF68E7600220FEF732
:1044E0004FFE391EE8D109B0F0BCBB46B246A94622
:1044F000A046F0BDA123E35C9846002B00D17DE0EF
:10450000236F002B00D058E1E36E002B00D157E160
:10451000A223E35C0B2B00D90CE14246A021364BD1
:10452000D25C635C934200D20DE16023E15A002922
:1045300019D1200003F088FF00281AD0257D002320
:104540009846062D00D0EFE6638BDB0600D5A9E088
:10455000637A1B0700D543E7666F002E00D043E760
:1045600000239A4611E7200003F088F8002800D1C4
:1045700001E1A0230022E254A132A35C062BDDD886
:104580000133A354DAE74B46226A1B689B1AF02BCF
:1045900000D959E74346002B00D055E7237F627FBF
:1045A0000133DBB2E56823779A4200D9FAE60023AB
:1045B000069A237713708C33E358002B0AD021001E
:1045C00020699847069B1B78002B00D09CE60028AA
:1045D00000D0E7E6200003F03BFCE3E6A346E468F6
:1045E000E2E6C046F4CA00203BCB0020E4CA00202B
:1045F00039CB0020F8CA0020EF7001103023E25EB2
:104600007149238E8B4202D801331AB2228640238D
:10461000E35E934200DD84E6200003F019FA257D75
:10462000002807D0236F002B00D07AE6E36E002B22
:1046300000D176E6022D16D03C22A35E3E21625EBA
:10464000DB109B184222A15C60480A1C0C2900D98F
:1046500087E0D2B2825C934080221202934200DB58
:104660007DE04022A3520023482023866033E15A94
:10467000255A628E0B1CA94200D92B1C9BB25000FC
:104680005B0885B2191CAB4200D2011C4A23E152DF
:10469000023BE252002222332000E25203F002FEEB
:1046A000257D3EE64B461F68236AFF1A282F00D857
:1046B00052E743460133DBB298460023666F9A46C1
:1046C000002E00D054E69023E658002D00D1C0E61D
:1046D0000A2D00D1BDE6012D00D0B7E6B9E60023D2
:1046E0009A464CE6A323E35CFA215E43300049007E
:1046F00050440DF0B3FA874200D82DE7200003F0B4
:1047000035FE002800D06BE6A322A35C0133A3543E
:1047100066E6072D00D10DE662E6238B626A216D05
:104720000293E38A20000193231D0093230003F0EA
:104730005DFA9DE601239846F3E59C4237D1E36894
:10474000079A136090E60133DBB26354934200D2C0
:10475000F5E6EAE699422DD1CF683760BEE61C4BFC
:104760007FE70C22D2B2825C9340802212029342F5
:1047700000DA76E7F3E7200003F06AFB002800D0B8
:10478000F7E6DBE61348FCF79DF91348FCF79AF9C6
:104790001248FCF797F91248FCF794F91148FCF716
:1047A00091F91148FCF78EF91048FCF78BF9104885
:1047B000FCF788F90F48FCF785F90F48FCF782F9F8
:1047C0000E48FCF77FF9C046FE7F0000F87001102C
:1047D000FF7F000094580110685801103C580110E8
:1047E00084590110C05701102C590110B4590110FF
:1047F00058590110DC590110C0580110F45801102B
:1048000070B5041E16D06068256800280CD0FFF72C
:104810007FF821000420FEF7B3FC002D0AD02C0005
:10482000606825680028F2D121000420FEF7A8FC6A
:10483000002DF4D170BDC04610B5041E08D04068EC
:10484000002801D0FFF764F821000420FEF798FC4F
:1048500010BDC04670B5051E0DD00420FEF770FCDB
:10486000041E06D0102229000DF0F0FD6068FFF74D
:1048700065F8200070BD0148FCF724F9045A0110C6
:10488000002800D00161704710B5002804D0037DD6
:10489000012B02D08423C15010BD0148FCF712F94E
:1048A000205A011010B5002804D0037D012B02D03E
:1048B0008023C15010BD0148FCF704F9485A01108B
:1048C00010B5002804D0037D012B02D09023C150E5
:1048D00010BD0148FCF7F6F8705A0110002802D00C
:1048E000037D012B00D070478161FCE710B50028E3
:1048F00005D0037D012B03D08C23C150427710BD1E
:104900000148FCF7DFF8C046985A011010B500289E
:1049100006D0037D012B03D90A2B01D0FFF720FB22
:1049200010BDC04610B50C1E47D0002848D0036803
:104930008B4204D12FE0DA68A24224D01300002B6E
:10494000F9D10023E360237D002B0FD1638BDA07BD
:1049500029D4E36E002B36D1236F002B36D1636F41
:10496000002B36D100232375E38210BD0A2BF0D033
:10497000012BF7D02000FFF7F3FA237D0A2BE8D0B4
:10498000012BEFD0E2E7E268DA600023E360237DE9
:10499000002BEBD1DAE7CB6803600023E360237DD3
:1049A000002BE3D1D2E7022213436383200003F0FC
:1049B0004FFA237D012BD5D0CBE70748FCF782F8CF
:1049C0000648FCF77FF80648FCF77CF80548FCF73A
:1049D00079F80548FCF776F8B85A0110D45A011056
:1049E000F45A01100C5B0110285B0110F0B54E4623
:1049F0004546DE465746E0B505000E0087B0002864
:104A000076D0037D012B00D1B0E00A2B00D19BE0D2
:104A1000026D9246426A059290228258934602693C
:104A20009146C28A9046002B69D1002A6FD100239B
:104A3000002698462C6F002C16D060682768002846
:104A40000CD0FEF765FF21000420FEF799FB002F34
:104A50000AD03C00606827680028F2D121000420B9
:104A6000FEF78EFB002FF4D1EC6E002C16D06068A0
:104A7000276800280CD0FEF74BFF21000420FEF72A
:104A80007FFB002F0AD03C00606827680028F2D125
:104A900021000420FEF774FB002FF4D16C6F002C72
:104AA00016D06068276800280CD0FEF731FF21007F
:104AB0000420FEF765FB002F0AD03C0060682768E1
:104AC0000028F2D121000420FEF75AFB002FF4D178
:104AD000002E2CD12B7D012B45D029000220FEF782
:104AE0004FFB5B46002B03D00D2148464942D84777
:104AF00007B0F0BCBB46B246A946A046F0BD2900AF
:104B00001C48FFF70FFF01221B4B1A7092E71B4A4C
:104B10001368834208D1C36813600023EB6086E703
:104B2000DA68AA421CD01300002BF9D1F5E72B8BD1
:104B300051460293434601932B1D009328002B00FE
:104B4000059A03F053F8C5E729000D48FFF7EAFE80
:104B50002B7D012B07D029000220FEF711FBC7E7B0
:104B6000EA68DA60D9E70748FBF7ACFF0648FBF7CD
:104B7000A9FFC046E4CA002039CB0020E8CA0020C3
:104B8000F8CA0020C0570110405B011010B5012188
:104B9000FFF72CFF10BDC046080010B5002905D056
:104BA0000121FFF723FF0D20404210BD0148FBF714
:104BB00089FFC046745B0110F0B5C646060000B51B
:104BC0000220FEF7BDFA041E2AD0A42200212000F4
:104BD0000DF036FC6423624A6675E252614B402256
:104BE000A362FF23E372F93BA352E3875E4B443297
:104BF00023635E4B1B6823625D4B1B78A3775D4B81
:104C0000A3645D4BA35094235C4AE2505C4A043396
:104C1000E25009220433E250200080BCB846F0BDC7
:104C2000584B082798461D68002D0AD02800438B52
:104C3000ED681F42F8D0BB434383FFF767F9002DAF
:104C4000F4D1514B1B68002B11D00021474A10684A
:104C50001A6A821A914201D811001C00DB68002BED
:104C6000F6D1002C03D001212000FFF7BFFE022067
:104C7000FEF766FA041EA8D143461B68002B16D027
:104C80003A4A0021106802E0DB68002B09D01A7D47
:104C9000092AF9D11A6A821A9142F5D811001C002A
:104CA000F2E7002C03D000212000FFF79FFE022036
:104CB000FEF746FA041E00D087E743461B68002B28
:104CC00016D02A4A0021106802E0DB68002B09D0C8
:104CD0001A7D082AF9D11A6A821A9142F5D8110070
:104CE0001C00F2E7002C03D000212000FFF77EFE1D
:104CF0000220FEF725FA041E00D066E773B2002BEF
:104D00002BDB002E22D0320043461B68013AD2B280
:104D1000002B1BD015490F680021884607E0186A50
:104D20003A1A90461C000A00DB68002B08D0597D17
:104D30008A42F4D8F8D1186A3D1AA845F4D8EFE7AA
:104D4000002C03D001212000FFF750FE0220FEF7C7
:104D5000F7F9041E00D038E75EE77F22D4E7C046AB
:104D6000A02D0000A02DA02DFFFF1802F4CA0020E6
:104D70003BCB00200100A02D214F001000DD6D0075
:104D8000F8240100E4CA0020F8CA002010B5402031
:104D9000FFF712FF10BDC04630B5040085B00028F3
:104DA00000D19DE0037D002903D0042B1AD0072BEE
:104DB00018D0012B00D168E0022B4AD0002B5DD126
:104DC000E38A002B4FD04B4A1368A34205D184E0FD
:104DD000DA68A24200D17DE01300002BF8D1002355
:104DE000E36040E0A36F002B44D0638BDB0600D46C
:104DF00079E0238B626A216D0293E38A200001939C
:104E0000231D0093230002F0F1FE237D012B04D922
:104E10000A2B02D02000FFF7A3F8374A1368A342F9
:104E200014D1E368136000230122E360334B1A704E
:104E3000334B1B68A34225D0237D012B13D131486E
:104E4000FBF740FEDA68A24241D01300002BF9D1F3
:104E5000E9E721002848FFF765FD0122274B1A707A
:104E6000237D012BEBD021000220FEF789F90020E1
:104E700005B030BD244B228D9A42B6D12000FFF7F9
:104E800045F8F5E702F07EF8F1E7204900200D0033
:104E90000C354B681B68002B05D0DA6F944211D09B
:104EA000DB68002BF9D104318D42F2D12100184882
:104EB000FFF738FD237D012B18D021000320FEF7DA
:104EC0005FF9D4E7D867DB68002BE6D1EBE7E2684F
:104ED000DA60A8E7E268DA6081E7E36813607EE7FA
:104EE0000C48FBF7EFFD0C48FBF7ECFD0B48FBF71C
:104EF000E9FDC046E8CA0020E4CA002039CB002002
:104F0000ECCA0020C0570110A02D0000E070011075
:104F1000F0CA0020945B0110B45B0110D05B01105B
:104F2000F0B5C6460800140000B500294AD0002A92
:104F30002CD013890A7D012A47D0098D264A5B1897
:104F40009BB293421ED913009046476A468E234A6D
:104F5000C56A0385B844311C964200D9111C4246EB
:104F600089B24919511A21D5ED1B1CD480235B024B
:104F70009D422DD245852000FEF7CAFC002080BC52
:104F8000B846F0BD9942DED81A00DDE7002BF5D116
:104F90000B7D012B03D010224B8B13434B8301213C
:104FA000FFF7FAFEEBE700234385E4E743850C4B6C
:104FB000521B9A42DFD90222438B1343438302F0F0
:104FC00047FFD8E710204042D9E70648FBF77AFDB3
:104FD0000548FBF777FDC046A02D0000D016000065
:104FE000670B000014580110F8570110F8B5041EA3
:104FF00032D00023866F777B83678433C558002DBA
:105000000CD00023320021000069A84700280BD0F3
:105010000D301ED00520A6674042F8BD3189FFF74C
:1050200011F93000FEF774FCBF0610D5238D0C4A31
:10503000934201D0013323858423E558002D06D007
:105040000023002221002069A8470D3001D0002054
:10505000E3E70D204042E0E710204042DDE7C04694
:10506000A02D0000F0B54F464646D646C0B5204DAF
:10507000204F2B7801332B701F4B99460123984604
:105080004B461C68002C1BD008262B78A27F9A4226
:105090001BD04246A377638B1A421ED11E4216D103
:1050A000E3689A46A36F002B07D0002320003B70D3
:1050B000FFF79CFF3B78002BE2D15446002CE4D153
:1050C000E0BCBA46B146A846F0BDE468F6E7B34393
:1050D00020006383FEF71AFFE2E702221343638393
:1050E000200002F0B5FE0322638B93436383D5E770
:1050F0003BCB002039CB0020E4CA002010B5FFF7DD
:10510000B1FF054A13780133DBB21370DB0700D41B
:1051100010BDFFF7E3F8FBE73ACB002030B5040001
:1051200085B0002800D198E0037D012B00D16FE00D
:105130001021428B0A434283042B36D1A36F002BEC
:105140004BD0238B626A216D0293E38A2000019386
:10515000231D0093230002F049FD237D012B04D978
:105160000A2B02D02000FEF7FBFE3F4A13689C4248
:1051700018D1E368136000230122E3603B4B1A70EF
:105180003B4B1B689C4230D0237D012B3AD0210041
:105190000220FDF7F5FF002005B030BDDA6894422B
:1051A00033D01300002BF9D1E5E7072BC6D0022B33
:1051B0001ED016D8C38A002BE9D02E4A1368984215
:1051C00008D1C36813600023E360E0E7DA68944223
:1051D00040D01300002BF9D1F5E7274B228D9A42DE
:1051E000AFD12000FEF792FED6E701F0CBFED2E76A
:1051F00021001D48FFF796FB01221C4B1A70237DEE
:10520000012BC4D11D48FBF75DFCE268DA60B2E710
:105210001B4900200D000C354B681B68002B05D086
:10522000DA6F944211D0DB68002BF9D10431A94226
:10523000F2D121001348FFF775FB237D012B0FD01E
:1052400021000320FDF79CFFA5E7D867DB68002B52
:10525000E6D1EBE7E268DA60B5E7102040429BE771
:105260000948FBF72FFCC046E4CA002039CB0020D8
:10527000ECCA0020E8CA0020A02D0000C057011091
:10528000E0700110F0CA0020D05B011010B50028BA
:1052900006D0054B054A186812688018186010BDC2
:1052A0000348FBF70FFCC04614050020F4CA002099
:1052B000EC5B011010B5002A10D000290DD00A8E29
:1052C000002A0AD0131C282A00D22823283B1A1CA3
:1052D0009BB2834200D9021C90B210BD0148FBF77B
:1052E000F1FBC046085C011070B505000E000028F7
:1052F00002D00368002B00D170BD1D4A1068002841
:1053000004D10CE0002C0AD020002B680268C4688D
:105310009342F7D10121FFF769FB002CF4D1154B23
:105320001C68002C0AD022682B682000E4689A428E
:10533000F7D10121FFF75AFB002CF4D1002EDBD06E
:105340003368002BD8D00C4B1A68002AD4D02B68B5
:105350001168994205D0D268002ACDD011689942CF
:10536000F9D133681360D268002AF0D1C4E7C0468F
:10537000E4CA0020E8CA0020F0CA002070B5446FDB
:105380000600002C18D06068256800280CD0FEF7B5
:10539000BFFA21000420FDF7F3FE002D0AD02C00F7
:1053A000606825680028F2D121000420FDF7E8FE9E
:1053B000002DF4D10023736770BDC046F0B5C6461A
:1053C00000B5002800D1C4E0634B1D88002D31D00A
:1053D000624B9C46002362461380614B1F68614B01
:1053E0001C88002F00D16FE05F490023002288460F
:1053F0001600954200D8A2E0531CB1B29BB28C4279
:105400001BD8191B0139C9B2795C01291BD00229AB
:105410001DD000290CD09C424DD953490968CB18A6
:105420001B7D012B00D890E09A1892B20123DFE790
:105430006246138080BCB846F0BD414609688919B0
:10544000097D0129E3D11A0001360123D1E7911C1E
:1054500089B29C4221D9444E3668F3181B7D042B37
:1054600020D14B1CAB421DDAD31C04329BB292B24A
:105470008C421AD8091BC9B27E5C36029C421ED8E7
:105480001B1BDBB2FB5C3343591E384E89B2B14261
:1054900000D9374B43860123AAE71B1BDBB2FB5C19
:1054A000042BDED063461980C4E72F4E366871188E
:1054B0000E7D3602E2E71B1BDBB2FB5CB1E72A493B
:1054C0000968CB181B7DDEE7274B00221E680023EE
:1054D00014001434954232D9315D531C9BB201291A
:1054E00026D0022909D00029A2D0F3181B7D012B58
:1054F0002BD99A1892B20123EAE7F3181B7D911C6D
:1055000089B2042BCED14B1CAB42CBDAD41C711820
:10551000A4B20B7D3419217D1B020B43591E134C81
:10552000043289B292B2A14206D843860123CFE762
:105530001A0001340123CDE70D4B4386F6E7002B1B
:1055400000D177E763461A8074E7634602321A8017
:1055500070E70848FBF7B6FA28CB002024CB0020E0
:1055600000CB002026CB0020FCCA0020B3050000A1
:10557000B4050000305C0110F0B5D6464F464646F3
:1055800005000C00C0B500285CD0C368587B1A7BAE
:1055900000021043FDF788F8C0074FD401239A4654
:1055A000FE339846294E3268E36894465A79197951
:1055B00012020A439979288909041143DA79278963
:1055C000120660440A43811AC91B2DD4587B1A7BEA
:1055D00000021043FDF768F85346034207D12768DD
:1055E0002000FFF729F9002F17D03C00DBE7EB681C
:1055F000587B1F7B000207430120FDF755F8414609
:105600003843EA6883B2276808401B0A1073537353
:105610002000FFF711F9002FE7D100242C60E0BC37
:10562000BA46B146A846F0BD101AF7D56346D21A5D
:1056300091B268682981FEF7AFF8EFE72000FFF725
:10564000DFF8EAE70248FBF73DFAC046C8C9002088
:105650004C5C0110F0B55746DE464E464546E0B577
:1056600083B007000C1E019246D02D4B9B4666234B
:1056700098462C4B9A465B46E1681D684A790B793F
:1056800012021A438B79C8791B041343000618438E
:10569000FDF70EF8238906009946E368AD1B587B99
:1056A0001A7B00021043FCF7FFFF4B46ED1A032361
:1056B0001840431E98412D1A2AD460682568FEF7C9
:1056C00033F94346FB5A984227D842461B1ABB522D
:1056D00052462389128820009B1852461380FFF7F8
:1056E000ABF84346FB5A002B0ED0002D01D02C0006
:1056F000C1E7019B002B0DD0002003B0F0BCBB46DE
:10570000B246A946A046F0BD002DF5D02C00B2E768
:105710002000F2E70448FBF7D5F90448FBF7D2F97B
:10572000380F002022CB00209C5C0110745C01101B
:10573000F0B5DE4657464E464546E0B5017D0400CD
:1057400083B0032901D800F0B0FCA64B1A6801937E
:10575000A54B1B78DB064ED4A44B984643461F88C6
:10576000019B1A68002F00D18DE0217D636A062914
:1057700000D989E0991AD01A4D1E00D546E1461E7F
:10578000FE4200D542E19A4D6868002801D100F040
:10579000B9FC984B994201D900F0B1FC028989B259
:1057A0008A4201D200F0A8FC2B89521A5B1A2B8185
:1057B000438992B2994208D9002747810281006843
:1057C000C91A438989B28B42F7D3FEF74FF8636A4F
:1057D000019A190A1360EA68517119021371090ECE
:1057E0001B0E9171D371238D002B00D058E2200045
:1057F00002F008FB4FE06023C35A7F4D9946836D4A
:105800009A46436D28689F1A54D493424FD04B4612
:10581000D346824500D1A9E1666CB446371A5DD4FF
:10582000724E3788B046002F00D1CFE0636B002B5B
:105830009CD0A26B121A91D598B2704A3C23E15EBB
:105840001788CA1092B2BB1A1B1A9BB259180DB214
:1058500019B2A587002902DAD21B83189BB23E2217
:10586000A15EED108A10891A40225B189BB2E38773
:105870005B19A3520023636343461F88019B1A6888
:10588000002F00D071E7636AD11A0BD4218D013B40
:10589000CB189B1A06D403B0F0BCBB46B246A9464F
:1058A000A046F0BD0222638B13436383F3E75346A4
:1058B0001B1AACD5524B1B689F7BDB7B1B023B4307
:1058C0006027E3530237E65B9E4200D2E353666CE7
:1058D0008346B4466265A065371AA1D5F343C34237
:1058E00000D54EE1236D1B1A00D54AE14A23E75A41
:1058F000463B1900628B11408846134200D069E193
:10590000E68F4433B1464026E35A9A463C21635E13
:105910004146DB104B44A35363460236C31AA153DE
:105920009BB26064BA4501D300F0DEFB8020000129
:10593000024050424241608E01325043021C80B20C
:10594000984200D91A1C130053449BB2534500D20D
:105950007DE14822A352E26E216F2000FFF77AFE1C
:10596000E16E020020672000FFF774FE276FE066FB
:105970007B427B415B42238600232377002800D1B2
:105980006AE164211F4A635A12889B186352638B31
:105990001A0500D4F8E0002F00D1BCE2F9684A797A
:1059A0000B7912021A438B79C8791B041343000642
:1059B0001843FCF77DFEE36CC01A00D5E4E0638B6E
:1059C000114A13406383094B9846DFE049465B4424
:1059D00051448B4200D1E4E0636B002B00D028E7F8
:1059E000636A51E7C8C9002032CB00202ACB0020CF
:1059F00010200020FEFF0000380F0020F4CA002015
:105A0000FCCA002022CB0020FFF7FFFF002800DAAD
:105A1000C2E0218DE94200D5E9E69A4200D168E36F
:105A2000676F002F00D17BE2F868437901791B0290
:105A30000B43817909041943C3791B060B43934235
:105A400000D10CE1551EAC46D11A00D5ABE23D6841
:105A5000002D29D0E868437901791B020B43817935
:105A600009041943C3791B060B43934200D1F8E0A4
:105A7000F9688A460979894651464E4649790902AC
:105A80000E435146897909040E435146C9790906E6
:105A900031436646711A03D4991A012900D4B6E03D
:105AA0002F003D68002DD5D19B1A00D49FE6037BC3
:105AB000407B00021843FCF7F7FDC00700D596E6CF
:105AC000D248FEF7C7FE3860002800D18FE6F8689C
:105AD000019B41791A6803790902194383791B04F0
